:020000040000FA
:04000000FEEFFFF020
:020000040001F9
:10FF3A00120012001200000ECE6E000EC66E000EE7
:10FF4A000401006F120001EE0FF10D0EEE6AE806D1
:10FF5A00FDE10001C2EFFFF0000E176E000E186EF1
:10FF6A00000E196E000E1A6E000E136E000E146E3D
:10FF7A00000E156E000E166E1200128E9DECFFF02A
:10FF8A00B1ECFFF0A0ECFFF09FECFFF0D3ECFFF038
:10FF9A009EECFFF0CBEFFFF0FEEFFFF0800EBE6E9F
:10FFAA00000E0B6E000E0C6E000E0D6E000E0E6E25
:10FFBA00BE2A520E026E2B0E016E000EE82EFED7DE
:10FFCA00012EFCD7022EFAD700D0010E0B26000E06
:10FFDA000C220D220E220E500D100C1009E1400EBB
:10FFEA000B5CD8A0FBEFFFF0FDEFFFF0DDEFFFF0B9
:06FFFA001200A8EFFFF069
:020000040020DA
:10000000FF0FFF0FFF0FFF0FFF0FFF0FFF0FFF0F80
:10001000FF0FFF0FFF0FFF0FFF0FFF0FFF0FFF0F70
:020000040030CA
:0A0000008CFEFFFC9FFFFFFFFFFFD7
:00000001FF
