:020000040000FA
:0400000081EF00F09C
:1000080055013D013D013D0140003D0140003D01DC
:100018003D013D013D013D013D013D013D013D01E8
:100028003D014000400040003D013D013D013D01D2
:100038003D013D013D014E01F3003D013D013D0102
:100048003D013D013D013D01400040003D013D01B4
:100058003D013D013D0140003D013D013D013D01A6
:100068003D013D013D013D013D013D013D013D0198
:100078003D013D013D013D0140003D013D013D0186
:100088003D013D013D013D013D013D013D013D0178
:100098003D013D013D013D0140003D014000400062
:1000A8003D013D013D013D013D013D013D013D0158
:1000B8003D013D013D013D013D013D013D013D0148
:1000C8003D013D013D013D013D013D013D013D0138
:1000D8003D013D013D013D013D013D013D013D0128
:1000E80040003D013D013D0140004000400040000E
:1000F8003D013D013D013D01FF007AEF01F08083A4
:1001080086898C8F9295989B9EA2A5A7AAADB0B31D
:10011800B6B9BCBEC1C4C6C9CBCED0D3D5D7DADC3C
:10012800DEE0E2E4E6E8EAEBEDEEF0F1F3F4F5F612
:10013800F8F9FAFAFBFCFDFDFEFEFEFFFFFFFFFFEC
:10014800FFFFFEFEFEFDFDFCFBFAFAF9F8F6F5F4FA
:10015800F3F1F0EEEDEBEAE8E6E4E2E0DEDCDAD734
:10016800D5D3D0CECBC9C6C4C1BEBCB9B6B3B0AD69
:10017800AAA7A5A29E9B9895928F8C898683807C3E
:10018800797673706D6A6764615D5A5855524F4C41
:10019800494643413E3B393634312F2C2A28252302
:1001A800211F1D1B1917151412110F0E0C0B0A090C
:1001B8000706050504030202010101000000000012
:1001C80000000101010202030405050607090A0BE4
:1001D8000C0E0F1112141517191B1D1F212325288A
:1001E8002A2C2F313436393B3E414346494C4F5235
:1001F80055585A5D6164676A6D707376797C4750AB
:10020800491807E148504A18D8A40DEF01F00FEF3C
:1002180001F077EF01F04D50D8B415EF01F017EF6A
:1002280001F03BEF01F04C50020D600EF324D96E43
:10023800050EF420DA6E610078F347F5610074F377
:1002480048F54C50020D010EF324D96E050EF4202A
:10025800DA6E610078F358F5610074F359F5D890B7
:100268005834456E5934466E4C2A55EF01F01B0E32
:100278004C6041EF01F043EF01F04CEF01F0000E4C
:10028800486E320E476E7F0E466E456855EF01F098
:10029800000E4C6E000E486E640E476E7F0E466E62
:1002A800456845C553F546C554F54D50D8A45FEF8C
:1002B80001F062EF01F0010E63EF01F0000E556EE0
:1002C800BCEC01F04D50D8B46CEF01F06FEF01F0C9
:1002D800010E70EF01F0000E4D6E000E4A6E000E1A
:1002E800496E79EF01F0494A4A2A1200060EF66E65
:1002F800010EF76E000EF86E01EE00F210EE00F13E
:100308000900F5C4EEF4E550E150FAE1E250F8E1F5
:100318003E0EF66E040EF76E000EF86E01EE60F1FA
:1003280010EE38F00900F5C4EEF4E550E150FAE1BA
:10033800060EF66E040EF76E000EF86E01EE01F171
:1003480010EE38F00900F5C4EEF4E550E150FAE19A
:1003580001EE39F1190EEE6AE806FDE10401080E16
:100368005D6F000E5E6F000E5F6F000155EF02F0CB
:1003780003011E91800E545CD8A0C5EF01F0C7EFB1
:1003880001F0CAEF01F07F0E546E5368531C566E8D
:10039800541C576E57504F6E56C54EF561003CF5CC
:1003A8001DF3610038F51CF350905550D8B4DFEFB9
:1003B80001F0E1EF01F0E2EF01F05080B198A1887F
:1003C8001E81120061003CF51DF3610038F51CF335
:1003D800000E4B24D96EDA6A060EDA22DF500001CD
:1003E8007D6F040E4B26B19850B0FDEF01F0FFEF82
:1003F80001F002EF02F0A19803011E9111003C00E8
:1004080000003C0000002800000028000000240034
:10041800000024000000280000002D0000002D002E
:1004280000002F0000002F000000350000003500FC
:1004380000003C000000000232000002320000020E
:1004480032000002320000023200000232000004D2
:1004580032000002320000023200000232000002C4
:100468003200000232000002320000023200000EA8
:10047800416E000E426E000E436E000E446E000E7A
:100488003D6E000E3E6E000E3F6E000E406E7D0EFD
:100498000301236F010E266FB196F00E246FA1861B
:1004A8001200518EACEC02F087EC02F0A5EC02F0E1
:1004B8003BEC02F06BEC02F0519E03EC01F0BE9EA7
:1004C80092EC02F0BE8E61EF02F081EF00F0C00EF8
:1004D800BE16900E03011A6F540E1B6F000E1F6F8D
:0A04E800010E216F310E1E6F12008D
:1004F400610060F352F5010E3926000E3A223B22C8
:100504003C22610048F5D8F41100000E0401006F8C
:10051400000EC66EA00E00017F6F000E7D6F1200EC
:10052400518C51BC98EF02F09AEF02F093EF02F075
:020534001200B3
:10053800B196519C010E4126000E422243224422CC
:0A0548001100D68AD68ED68C120060
:06055400AE901100120040
:020000040020DA
:10000000FF0FFF0FFF0FFF0FFF0FFF0FFF0FFF0F80
:10001000FF0FFF0FFF0FFF0FFF0FFF0FFF0FFF0F70
:020000040030CA
:0A0000008CFEFFFC9FFFFFFFFFFFD7
:00000001FF
