:020000040000FA
:04000000FEEFFFF020
:020000040001F9
:10FEFA0012001200120080000000800ECE6E200E4A
:10FF0A00C76E000EC66E000E0401006F000E086F69
:10FF1A001200000E096E000E0A6E000E0B6E000E25
:10FF2A000C6E000E056E000E066E000E076E000EB9
:10FF3A00086E1200048E7DECFFF08EECFFF082EC6E
:10FF4A00FFF07FECFFF0C9ECFFF07EECFFF0A8EFCA
:10FF5A00FFF0FEEFFFF0000EF66EFF0EF76E010ED9
:10FF6A00F86E01EE0EF110EE04F00900F5C4EEF49D
:10FF7A00E550E150FAE101EE01F10D0EEE6AE806F4
:10FF8A00FDE100019FEFFFF0CFAACEEFFFF0D0EF27
:10FF9A00FFF0FDEFFFF0210EE82EFED700F0CFBAFA
:10FFAA00D9EFFFF0DBEFFFF0FDEFFFF0115010107B
:10FFBA000F1007E1BF0E0E5CD8B0E6EFFFF0E8EFD6
:10FFCA00FFF0F0EFFFF0BE2ABE500E6E0F6A106A05
:10FFDA00116AFDEFFFF0800E0E6E000E0F6E000E1E
:10FFEA00106E000E116EBE500E6E0F6A106A116A04
:06FFFA001200B0EFFFF061
:020000040020DA
:10000000FF0FFF0FFF0FFF0FFF0FFF0FFF0FFF0F80
:10001000FF0FFF0FFF0FFF0FFF0FFF0FFF0FFF0F70
:020000040030CA
:0A0000008CFEFFFC9FFFFFFFFFFFD7
:00000001FF
