:020000040000FA
:0400000081EF00F09C
:1000080042012A012A012A0140002A0140002A014E
:100018002A012A012A012A012A012A012A012A0180
:100028002A014000400040002A012A012A012A0131
:100038002A012A012A013B01EE002A012A012A018C
:100048002A012A012A012A01400040002A012A0126
:100058002A012A012A0140002A012A012A012A012B
:100068002A012A012A012A012A012A012A012A0130
:100078002A012A012A012A0140002A012A012A010B
:100088002A012A012A012A012A012A012A012A0110
:100098002A012A012A012A0140002A0140004000C1
:1000A8002A012A012A012A012A012A012A012A01F0
:1000B8002A012A012A012A012A012A012A012A01E0
:1000C8002A012A012A012A012A012A012A012A01D0
:1000D8002A012A012A012A012A012A012A012A01C0
:1000E80040002A012A012A01400040004000400047
:1000F8002A012A012A012A01FF007FEF01F08083EB
:1001080086898C8F9295989B9EA2A5A7AAADB0B31D
:10011800B6B9BCBEC1C4C6C9CBCED0D3D5D7DADC3C
:10012800DEE0E2E4E6E8EAEBEDEEF0F1F3F4F5F612
:10013800F8F9FAFAFBFCFDFDFEFEFEFFFFFFFFFFEC
:10014800FFFFFEFEFEFDFDFCFBFAFAF9F8F6F5F4FA
:10015800F3F1F0EEEDEBEAE8E6E4E2E0DEDCDAD734
:10016800D5D3D0CECBC9C6C4C1BEBCB9B6B3B0AD69
:10017800AAA7A5A29E9B9895928F8C898683807C3E
:10018800797673706D6A6764615D5A5855524F4C41
:10019800494643413E3B393634312F2C2A28252302
:1001A800211F1D1B1917151412110F0E0C0B0A090C
:1001B8000706050504030202010101000000000012
:1001C80000000101010202030405050607090A0BE4
:1001D8000C0E0F1112141517191B1D1F212325288A
:1001E8002A2C2F313436393B3E414346494C4F5235
:1001F80055585A5D6164676A6D707376797C4750AB
:10020800491807E148504A18D8A40DEF01F00FEF3C
:1002180001F07CEF01F04C50D8B415EF01F017EF66
:1002280001F040EF01F04D50020D010EF324D96E9C
:10023800050EF420DA6E610078F347F5610074F377
:1002480048F54D50020D1D0EF324D96E050EF4200D
:10025800DA6E610078F358F5610074F359F5D890B7
:1002680058365936D8905836593658C545F559C56F
:1002780046F54D2A5AEF01F00A0E4D6046EF01F09F
:1002880048EF01F051EF01F0000E486E320E476E54
:100298007F0E466E45685AEF01F0000E4D6E000E57
:1002A800486E640E476E7F0E466E456845C553F529
:1002B80046C554F54C50D8A464EF01F067EF01F03F
:1002C800010E68EF01F0000E556EB1EC01F04C50D4
:1002D800D8B471EF01F074EF01F0010E75EF01F081
:1002E800000E4C6E000E4A6E000E496E7EEF01F055
:1002F800494A4A2A1200060EF66E010EF76E000EE3
:10030800F86E01EE00F210EE00F10900F5C4EEF40B
:10031800E550E150FAE1E250F8E1F20EF66E030E14
:10032800F76E000EF86E01EE01F110EE38F00900DC
:10033800F5C4EEF4E550E150FAE101EE39F1190E99
:10034800EE6AE806FDE10401080E5D6F000E5E6FBF
:10035800000E5F6F00012FEF02F003011E91800E67
:10036800545CD8A0BAEF01F0BCEF01F0BFEF01F088
:100378007F0E546E5368531C566E541C576E57505C
:100388004F6E56C54EF561003CF51DF3610038F51A
:100398001CF350905550D8B4D4EF01F0D6EF01F0CB
:0E03A800D7EF01F05080B198A1881E8112009D
:1003B80061003CF51DF3610038F51CF3000E4B2479
:1003C800D96EDA6A060EDA22DF5000017D6F040E5C
:1003D8004B26B19850B0F3EF01F0F5EF01F0F8EFCC
:1003E80001F0A19803011E91110000020002000211
:1003F80000020002000200040002000200020002E3
:100408000002000200043C003C00280028002400F0
:10041800240028002D002D002F002F003500350066
:100428003C00000E416E000E426E000E436E000E40
:10043800446E000E3D6E000E3E6E000E3F6E000EC6
:10044800406E7D0E0301236F010E266FB196F00EEC
:10045800246FA1861200518E86EC02F061EC02F046
:100468007FEC02F015EC02F045EC02F0519E03EC33
:1004780001F0BE9E6CEC02F0BE8E3BEF02F081EF05
:1004880000F0C00EBE16900E03011A6F540E1B6FBB
:0E049800000E1F6F010E216F310E1E6F12003D
:1004A800610060F352F5010E3926000E3A223B2214
:1004B8003C22610048F5D8F41100000E0401006FD9
:1004C800000EC66EA00E00017F6F000E7D6F120039
:1004D800518C51BC72EF02F074EF02F06DEF02F034
:0204E800120000
:1004EC00B196519C010E4126000E42224322442219
:0A04FC001100D68AD68ED68C1200AD
:06050800AE90110012008C
:020000040020DA
:10000000FF0FFF0FFF0FFF0FFF0FFF0FFF0FFF0F80
:10001000FF0FFF0FFF0FFF0FFF0FFF0FFF0FFF0F70
:020000040030CA
:0A0000008CFEFFFC9FFFFFFFFFFFD7
:00000001FF
