:020000040000FA
:04000000FEEFFFF020
:020000040001F9
:10FEAC0012001200800EBE6E000EC66E000E040113
:10FEBC00006F1200800EBE6E540E03011B6F900E6D
:10FECC001A6F12000001020408102021222428308D
:10FEDC0031323438393A3C3D3E3F03011A9F281CDD
:10FEEC002A6E291C2B6E6100A8F418F32B50196F85
:10FEFC00B19E1A8F1200000E1F6E000E206E000EA7
:10FF0C00216E000E226E000E1B6E000E1C6E000E7B
:10FF1C001D6E000E1E6E1200D00EF66EFE0EF76EEB
:10FF2C00010EF86E01EE01F110EE16F00900F5C4A9
:10FF3C00EEF4E550E150FAE101EE17F1110EEE6A24
:10FF4C00E806FDE10001ABEFFFF01A8E56ECFFF076
:10FF5C0081ECFFF058ECFFF060ECFFF0CBECFFF025
:10FF6C00BE9E57ECFFF0030E296EE80E286E73EC64
:10FF7C00FFF0B1AEC4EFFFF0C6EFFFF0BFEFFFF044
:10FF8C00BE8EB4EFFFF0FEEFFFF0254A262AE80EF6
:10FF9C00251807E1030E2618D8A4D7EFFFF0D9EFE8
:10FFAC00FFF0FDEFFFF0000E266E000E256E6100D7
:10FFBC00F8F228F5800E2816010E2324D96E050EB2
:10FFCC002420DA6EDF5028126100A0F4BEF4234A1C
:10FFDC00242A160E23182410D8A4F7EFFFF0F9EFFB
:10FFEC00FFF0FDEFFFF0000E246E000E236E1200EA
:04FFFC0092EFFFF091
:020000040020DA
:10000000FF0FFF0FFF0FFF0FFF0FFF0FFF0FFF0F80
:10001000FF0FFF0FFF0FFF0FFF0FFF0FFF0FFF0F70
:020000040030CA
:0A0000008CFEFFFC9FFFFFFFFFFFD7
:00000001FF
